{
  "contractName": "BetCoon",
  "abi": [
    {
      "anonymous": false,
      "inputs": [
        {
          "indexed": true,
          "internalType": "uint256",
          "name": "betId",
          "type": "uint256"
        },
        {
          "indexed": false,
          "internalType": "uint256",
          "name": "targetPrice",
          "type": "uint256"
        },
        {
          "indexed": false,
          "internalType": "uint256",
          "name": "startTime",
          "type": "uint256"
        },
        {
          "indexed": false,
          "internalType": "uint256",
          "name": "endTime",
          "type": "uint256"
        }
      ],
      "name": "BetCreated",
      "type": "event"
    },
    {
      "anonymous": false,
      "inputs": [
        {
          "indexed": true,
          "internalType": "uint256",
          "name": "betId",
          "type": "uint256"
        },
        {
          "indexed": true,
          "internalType": "address",
          "name": "participant",
          "type": "address"
        },
        {
          "indexed": false,
          "internalType": "uint256",
          "name": "amount",
          "type": "uint256"
        },
        {
          "indexed": false,
          "internalType": "bool",
          "name": "aboveTarget",
          "type": "bool"
        }
      ],
      "name": "BetJoined",
      "type": "event"
    },
    {
      "anonymous": false,
      "inputs": [
        {
          "indexed": true,
          "internalType": "uint256",
          "name": "betId",
          "type": "uint256"
        },
        {
          "indexed": false,
          "internalType": "bool",
          "name": "outcome",
          "type": "bool"
        }
      ],
      "name": "BetResolved",
      "type": "event"
    },
    {
      "anonymous": false,
      "inputs": [
        {
          "indexed": true,
          "internalType": "uint256",
          "name": "betId",
          "type": "uint256"
        },
        {
          "indexed": true,
          "internalType": "address",
          "name": "claimant",
          "type": "address"
        },
        {
          "indexed": false,
          "internalType": "uint256",
          "name": "amount",
          "type": "uint256"
        }
      ],
      "name": "WinningsClaimed",
      "type": "event"
    },
    {
      "inputs": [],
      "name": "FEE_CUTOFF_PERCENTAGE",
      "outputs": [
        {
          "internalType": "uint256",
          "name": "",
          "type": "uint256"
        }
      ],
      "stateMutability": "view",
      "type": "function"
    },
    {
      "inputs": [],
      "name": "FINAL_FEE_PERCENTAGE",
      "outputs": [
        {
          "internalType": "uint256",
          "name": "",
          "type": "uint256"
        }
      ],
      "stateMutability": "view",
      "type": "function"
    },
    {
      "inputs": [],
      "name": "INITIAL_FEE_PERCENTAGE",
      "outputs": [
        {
          "internalType": "uint256",
          "name": "",
          "type": "uint256"
        }
      ],
      "stateMutability": "view",
      "type": "function"
    },
    {
      "inputs": [
        {
          "internalType": "uint256",
          "name": "",
          "type": "uint256"
        }
      ],
      "name": "bets",
      "outputs": [
        {
          "internalType": "uint256",
          "name": "id",
          "type": "uint256"
        },
        {
          "internalType": "uint256",
          "name": "targetPrice",
          "type": "uint256"
        },
        {
          "internalType": "uint256",
          "name": "startTime",
          "type": "uint256"
        },
        {
          "internalType": "uint256",
          "name": "endTime",
          "type": "uint256"
        },
        {
          "internalType": "uint256",
          "name": "totalStake",
          "type": "uint256"
        },
        {
          "internalType": "uint256",
          "name": "winningStake",
          "type": "uint256"
        },
        {
          "internalType": "bool",
          "name": "isOpen",
          "type": "bool"
        },
        {
          "internalType": "bool",
          "name": "outcome",
          "type": "bool"
        },
        {
          "internalType": "bool",
          "name": "isResolved",
          "type": "bool"
        }
      ],
      "stateMutability": "view",
      "type": "function"
    },
    {
      "inputs": [],
      "name": "nextBetId",
      "outputs": [
        {
          "internalType": "uint256",
          "name": "",
          "type": "uint256"
        }
      ],
      "stateMutability": "view",
      "type": "function"
    },
    {
      "inputs": [
        {
          "internalType": "uint256",
          "name": "targetPrice",
          "type": "uint256"
        },
        {
          "internalType": "uint256",
          "name": "durationInSeconds",
          "type": "uint256"
        }
      ],
      "name": "createBet",
      "outputs": [],
      "stateMutability": "nonpayable",
      "type": "function"
    },
    {
      "inputs": [
        {
          "internalType": "uint256",
          "name": "betId",
          "type": "uint256"
        },
        {
          "internalType": "bool",
          "name": "aboveTarget",
          "type": "bool"
        }
      ],
      "name": "joinBet",
      "outputs": [],
      "stateMutability": "payable",
      "type": "function"
    },
    {
      "inputs": [
        {
          "internalType": "uint256",
          "name": "betId",
          "type": "uint256"
        },
        {
          "internalType": "uint256",
          "name": "actualPrice",
          "type": "uint256"
        }
      ],
      "name": "resolveBet",
      "outputs": [],
      "stateMutability": "nonpayable",
      "type": "function"
    },
    {
      "inputs": [
        {
          "internalType": "uint256",
          "name": "betId",
          "type": "uint256"
        }
      ],
      "name": "claimWinnings",
      "outputs": [],
      "stateMutability": "nonpayable",
      "type": "function"
    }
  ],
  "bytecode": "0x608060405234801561000f575f80fd5b506112858061001d5f395ff3fe608060405260043610610085575f3560e01c80639aca2792116100585780639aca279214610147578063cc4d4ed814610171578063d64f192d1461018d578063d9dd8bbf146101b7578063fff058e6146101e157610085565b806322af00fa146100895780635b411e50146100cd5780635cb5804a146100f7578063677bd9ff1461011f575b5f80fd5b348015610094575f80fd5b506100af60048036038101906100aa9190610b0c565b610209565b6040516100c499989796959493929190610b60565b60405180910390f35b3480156100d8575f80fd5b506100e1610279565b6040516100ee9190610beb565b60405180910390f35b348015610102575f80fd5b5061011d60048036038101906101189190610c04565b61027e565b005b34801561012a575f80fd5b5061014560048036038101906101409190610b0c565b6103c2565b005b348015610152575f80fd5b5061015b610687565b6040516101689190610beb565b60405180910390f35b61018b60048036038101906101869190610c6c565b61068c565b005b348015610198575f80fd5b506101a16108c8565b6040516101ae9190610beb565b60405180910390f35b3480156101c2575f80fd5b506101cb6108cd565b6040516101d89190610beb565b60405180910390f35b3480156101ec575f80fd5b5061020760048036038101906102029190610c04565b6108d2565b005b6001602052805f5260405f205f91509050805f015490806001015490806002015490806003015490806004015490806005015490806006015f9054906101000a900460ff16908060060160019054906101000a900460ff16908060060160029054906101000a900460ff16905089565b601481565b5f60015f8481526020019081526020015f20905080600301544210156102d9576040517f08c379a00000000000000000000000000000000000000000000000000000000081526004016102d090610d04565b60405180910390fd5b8060060160029054906101000a900460ff161561032b576040517f08c379a000000000000000000000000000000000000000000000000000000000815260040161032290610d6c565b60405180910390fd5b60018160060160026101000a81548160ff02191690831515021790555080600101548210158160060160016101000a81548160ff021916908315150217905550610374836109ff565b827f99a825dafd25f19a2f36300d5240607fa48cafd42572f5996ac26068385954688260060160019054906101000a900460ff166040516103b59190610d8a565b60405180910390a2505050565b5f60015f8381526020019081526020015f2090508060060160029054906101000a900460ff16610427576040517f08c379a000000000000000000000000000000000000000000000000000000000815260040161041e90610ded565b60405180910390fd5b5f816007015f3373ffffffffffffffffffffffffffffffffffffffff1673ffffffffffffffffffffffffffffffffffffffff1681526020019081526020015f2054116104a8576040517f08c379a000000000000000000000000000000000000000000000000000000000815260040161049f90610e55565b60405180910390fd5b8060060160019054906101000a900460ff161515816008015f3373ffffffffffffffffffffffffffffffffffffffff1673ffffffffffffffffffffffffffffffffffffffff1681526020019081526020015f205f9054906101000a900460ff1615151461054a576040517f08c379a000000000000000000000000000000000000000000000000000000000815260040161054190610ebd565b60405180910390fd5b5f81600501548260040154836007015f3373ffffffffffffffffffffffffffffffffffffffff1673ffffffffffffffffffffffffffffffffffffffff1681526020019081526020015f205461059f9190610f08565b6105a99190610f76565b90503373ffffffffffffffffffffffffffffffffffffffff166108fc8290811502906040515f60405180830381858888f193505050501580156105ee573d5f803e3d5ffd5b503373ffffffffffffffffffffffffffffffffffffffff16837f5380cf6fe903b40c6d5a9e0dfbca2f3a423f0a21520b4d5947ed5169bdba946d836040516106369190610beb565b60405180910390a35f826007015f3373ffffffffffffffffffffffffffffffffffffffff1673ffffffffffffffffffffffffffffffffffffffff1681526020019081526020015f2081905550505050565b5f5481565b5f60015f8481526020019081526020015f2090506106b281600201548260030154610a22565b4211156106f4576040517f08c379a00000000000000000000000000000000000000000000000000000000081526004016106eb90610ff0565b60405180910390fd5b5f3411610736576040517f08c379a000000000000000000000000000000000000000000000000000000000815260040161072d90611058565b60405180910390fd5b806006015f9054906101000a900460ff16610786576040517f08c379a000000000000000000000000000000000000000000000000000000000815260040161077d906110c0565b60405180910390fd5b5f61079a8260020154836003015434610a5f565b90505f81346107a991906110de565b905080836007015f3373ffffffffffffffffffffffffffffffffffffffff1673ffffffffffffffffffffffffffffffffffffffff1681526020019081526020015f205f8282546107f99190611111565b9250508190555080836004015f8282546108139190611111565b9250508190555083836008015f3373ffffffffffffffffffffffffffffffffffffffff1673ffffffffffffffffffffffffffffffffffffffff1681526020019081526020015f205f6101000a81548160ff0219169083151502179055503373ffffffffffffffffffffffffffffffffffffffff16857fa8740f6995be12756eb109b4eeeb6b8b31237e02065f8a3eb3a113fa154840e483876040516108b9929190611144565b60405180910390a35050505050565b600581565b600f81565b5f81426108df9190611111565b9050428111610923576040517f08c379a000000000000000000000000000000000000000000000000000000000815260040161091a906111b5565b60405180910390fd5b5f60015f805481526020019081526020015f2090505f54815f01819055508381600101819055504281600201819055508181600301819055506001816006015f6101000a81548160ff0219169083151502179055505f8160060160026101000a81548160ff0219169083151502179055505f81600401819055505f81600501819055505f547f45fe34945489707e3c6342dbc71da98fdc756d8f050a743eec3ae928683241338542856040516109db939291906111d3565b60405180910390a25f808154809291906109f490611208565b919050555050505050565b5f60015f8381526020019081526020015f2090505f808260050181905550505050565b5f808383610a3091906110de565b90506064601482610a419190610f08565b610a4b9190610f76565b84610a569190611111565b91505092915050565b5f808484610a6d91906110de565b90505f8542610a7c91906110de565b90505f82826005600f610a8f91906110de565b610a999190610f08565b610aa39190610f76565b6005610aaf9190611111565b905060648186610abf9190610f08565b610ac99190610f76565b93505050509392505050565b5f80fd5b5f819050919050565b610aeb81610ad9565b8114610af5575f80fd5b50565b5f81359050610b0681610ae2565b92915050565b5f60208284031215610b2157610b20610ad5565b5b5f610b2e84828501610af8565b91505092915050565b610b4081610ad9565b82525050565b5f8115159050919050565b610b5a81610b46565b82525050565b5f61012082019050610b745f83018c610b37565b610b81602083018b610b37565b610b8e604083018a610b37565b610b9b6060830189610b37565b610ba86080830188610b37565b610bb560a0830187610b37565b610bc260c0830186610b51565b610bcf60e0830185610b51565b610bdd610100830184610b51565b9a9950505050505050505050565b5f602082019050610bfe5f830184610b37565b92915050565b5f8060408385031215610c1a57610c19610ad5565b5b5f610c2785828601610af8565b9250506020610c3885828601610af8565b9150509250929050565b610c4b81610b46565b8114610c55575f80fd5b50565b5f81359050610c6681610c42565b92915050565b5f8060408385031215610c8257610c81610ad5565b5b5f610c8f85828601610af8565b9250506020610ca085828601610c58565b9150509250929050565b5f82825260208201905092915050565b7f426574206973207374696c6c206f6e676f696e670000000000000000000000005f82015250565b5f610cee601483610caa565b9150610cf982610cba565b602082019050919050565b5f6020820190508181035f830152610d1b81610ce2565b9050919050565b7f42657420616c7265616479207265736f6c7665640000000000000000000000005f82015250565b5f610d56601483610caa565b9150610d6182610d22565b602082019050919050565b5f6020820190508181035f830152610d8381610d4a565b9050919050565b5f602082019050610d9d5f830184610b51565b92915050565b7f426574206973206e6f74207265736f6c766564207965740000000000000000005f82015250565b5f610dd7601783610caa565b9150610de282610da3565b602082019050919050565b5f6020820190508181035f830152610e0481610dcb565b9050919050565b7f4e6f207374616b6520746f20636c61696d0000000000000000000000000000005f82015250565b5f610e3f601183610caa565b9150610e4a82610e0b565b602082019050919050565b5f6020820190508181035f830152610e6c81610e33565b9050919050565b7f4e6f74206f6e207468652077696e6e696e6720736964650000000000000000005f82015250565b5f610ea7601783610caa565b9150610eb282610e73565b602082019050919050565b5f6020820190508181035f830152610ed481610e9b565b9050919050565b7f4e487b71000000000000000000000000000000000000000000000000000000005f52601160045260245ffd5b5f610f1282610ad9565b9150610f1d83610ad9565b9250828202610f2b81610ad9565b91508282048414831517610f4257610f41610edb565b5b5092915050565b7f4e487b71000000000000000000000000000000000000000000000000000000005f52601260045260245ffd5b5f610f8082610ad9565b9150610f8b83610ad9565b925082610f9b57610f9a610f49565b5b828204905092915050565b7f426574206375746f66662074696d6520686173207061737365640000000000005f82015250565b5f610fda601a83610caa565b9150610fe582610fa6565b602082019050919050565b5f6020820190508181035f83015261100781610fce565b9050919050565b7f4d757374207374616b6520736f6d6520616d6f756e74000000000000000000005f82015250565b5f611042601683610caa565b915061104d8261100e565b602082019050919050565b5f6020820190508181035f83015261106f81611036565b9050919050565b7f426574206973206e6f74206f70656e00000000000000000000000000000000005f82015250565b5f6110aa600f83610caa565b91506110b582611076565b602082019050919050565b5f6020820190508181035f8301526110d78161109e565b9050919050565b5f6110e882610ad9565b91506110f383610ad9565b925082820390508181111561110b5761110a610edb565b5b92915050565b5f61111b82610ad9565b915061112683610ad9565b925082820190508082111561113e5761113d610edb565b5b92915050565b5f6040820190506111575f830185610b37565b6111646020830184610b51565b9392505050565b7f456e642074696d65206d75737420626520696e207468652066757475726500005f82015250565b5f61119f601e83610caa565b91506111aa8261116b565b602082019050919050565b5f6020820190508181035f8301526111cc81611193565b9050919050565b5f6060820190506111e65f830186610b37565b6111f36020830185610b37565b6112006040830184610b37565b949350505050565b5f61121282610ad9565b91507fffffffffffffffffffffffffffffffffffffffffffffffffffffffffffffffff820361124457611243610edb565b5b60018201905091905056fea2646970667358221220828e101e384e3f8dc4957ff3b9aa489c5224921839a4dec51e0f8ce1faa7df1364736f6c63430008150033",
  "immutableReferences": {},
  "source": "// SPDX-License-Identifier: MIT\npragma solidity ^0.8.0;\n\ncontract BetCoon {\n    struct Bet {\n        uint256 id;\n        uint256 targetPrice;\n        uint256 startTime;\n        uint256 endTime;\n        uint256 totalStake;\n        uint256 winningStake;\n        bool isOpen;\n        bool outcome; // true if Bitcoin price is above target price\n        bool isResolved;\n        mapping(address => uint256) stakes;\n        mapping(address => bool) betSide; // true if bet on price being above target price\n    }\n\n    uint256 public nextBetId;\n    mapping(uint256 => Bet) public bets;\n\n    // Fee structure variables\n    uint256 public constant FEE_CUTOFF_PERCENTAGE = 20; // Cutoff time as a percentage of total bet duration\n    uint256 public constant INITIAL_FEE_PERCENTAGE = 5; // Initial fee percentage\n    uint256 public constant FINAL_FEE_PERCENTAGE = 15; // Final fee percentage\n\n    event BetCreated(uint256 indexed betId, uint256 targetPrice, uint256 startTime, uint256 endTime);\n    event BetJoined(uint256 indexed betId, address indexed participant, uint256 amount, bool aboveTarget);\n    event BetResolved(uint256 indexed betId, bool outcome);\n    event WinningsClaimed(uint256 indexed betId, address indexed claimant, uint256 amount);\n\n    // Function to create a new bet\n    function createBet(uint256 targetPrice, uint256 durationInSeconds) public {\n        uint256 endTime = block.timestamp + durationInSeconds;\n        require(endTime > block.timestamp, \"End time must be in the future\");\n\n        Bet storage bet = bets[nextBetId];\n        bet.id = nextBetId;\n        bet.targetPrice = targetPrice;\n        bet.startTime = block.timestamp;\n        bet.endTime = endTime;\n        bet.isOpen = true;\n        bet.isResolved = false;\n        bet.totalStake = 0;\n        bet.winningStake = 0;\n\n        emit BetCreated(nextBetId, targetPrice, block.timestamp, endTime);\n\n        nextBetId++;\n    }\n\n    // Function to join an existing bet\n    function joinBet(uint256 betId, bool aboveTarget) public payable {\n        Bet storage bet = bets[betId];\n        require(block.timestamp <= getBetCutoffTime(bet.startTime, bet.endTime), \"Bet cutoff time has passed\");\n        require(msg.value > 0, \"Must stake some amount\");\n        require(bet.isOpen, \"Bet is not open\");\n\n        uint256 fee = calculateFee(bet.startTime, bet.endTime, msg.value);\n        uint256 stakedAmount = msg.value - fee;\n\n        bet.stakes[msg.sender] += stakedAmount;\n        bet.totalStake += stakedAmount;\n        bet.betSide[msg.sender] = aboveTarget;\n\n        emit BetJoined(betId, msg.sender, stakedAmount, aboveTarget);\n    }\n\n    // Function to resolve the bet and determine the winning side\n    function resolveBet(uint256 betId, uint256 actualPrice) public {\n        Bet storage bet = bets[betId];\n        require(block.timestamp >= bet.endTime, \"Bet is still ongoing\");\n        require(!bet.isResolved, \"Bet already resolved\");\n\n        bet.isResolved = true;\n        bet.outcome = actualPrice >= bet.targetPrice;\n\n        // Calculate total winning stake\n        calculateWinningStake(betId);\n\n        emit BetResolved(betId, bet.outcome);\n    }\n\n    // Function to claim winnings from a resolved bet\n    function claimWinnings(uint256 betId) public {\n        Bet storage bet = bets[betId];\n        require(bet.isResolved, \"Bet is not resolved yet\");\n        require(bet.stakes[msg.sender] > 0, \"No stake to claim\");\n        require(bet.betSide[msg.sender] == bet.outcome, \"Not on the winning side\");\n\n        uint256 winnerShare = (bet.stakes[msg.sender] * bet.totalStake) / bet.winningStake;\n        payable(msg.sender).transfer(winnerShare);\n\n        emit WinningsClaimed(betId, msg.sender, winnerShare);\n\n        bet.stakes[msg.sender] = 0; // Clear the user's stake after claiming\n    }\n\n    // Utility function to get the bet cutoff time\n    function getBetCutoffTime(uint256 startTime, uint256 endTime) private pure returns (uint256) {\n        uint256 duration = endTime - startTime;\n        return startTime + (duration * FEE_CUTOFF_PERCENTAGE / 100);\n    }\n\n    // Function to calculate fee based on participation time\n    function calculateFee(uint256 startTime, uint256 endTime, uint256 amount) private view returns (uint256) {\n        uint256 duration = endTime - startTime;\n        uint256 elapsedTime = block.timestamp - startTime;\n        uint256 feePercentage = INITIAL_FEE_PERCENTAGE + (FINAL_FEE_PERCENTAGE - INITIAL_FEE_PERCENTAGE) * elapsedTime / duration;\n        return amount * feePercentage / 100;\n    }\n\n    // Function to calculate the total winning stake\n    function calculateWinningStake(uint256 betId) private {\n        Bet storage bet = bets[betId];\n        uint256 totalWinningStake = 0;\n        // Iterate through all participants and sum the stakes of those on the winning side\n        // Add logic to iterate through stakes mapping\n        bet.winningStake = totalWinningStake;\n    }\n}\n",
  "sourcePath": "/Users/dmitryp/Desktop/betcoontruffle/contracts/BetCoon.sol",
  "compiler": {
    "name": "solc",
    "version": "0.8.21+commit.d9974bed.Emscripten.clang"
  },
  "schemaVersion": "3.4.16",
  "updatedAt": "2024-01-17T22:57:59.038Z",
  "devdoc": {
    "kind": "dev",
    "methods": {},
    "version": 1
  },
  "userdoc": {
    "kind": "user",
    "methods": {},
    "version": 1
  }
}